{
  "contractName": "todolist",
  "abi": [
    {
      "inputs": [],
      "payable": false,
      "stateMutability": "nonpayable",
      "type": "constructor"
    },
    {
      "anonymous": false,
      "inputs": [
        {
          "indexed": false,
          "internalType": "uint256",
          "name": "id",
          "type": "uint256"
        },
        {
          "indexed": false,
          "internalType": "bool",
          "name": "completed",
          "type": "bool"
        }
      ],
      "name": "TaskCompleted",
      "type": "event"
    },
    {
      "anonymous": false,
      "inputs": [
        {
          "indexed": false,
          "internalType": "uint256",
          "name": "id",
          "type": "uint256"
        },
        {
          "indexed": false,
          "internalType": "string",
          "name": "content",
          "type": "string"
        },
        {
          "indexed": false,
          "internalType": "bool",
          "name": "completed",
          "type": "bool"
        }
      ],
      "name": "TaskCreated",
      "type": "event"
    },
    {
      "constant": true,
      "inputs": [],
      "name": "count",
      "outputs": [
        {
          "internalType": "uint256",
          "name": "",
          "type": "uint256"
        }
      ],
      "payable": false,
      "stateMutability": "view",
      "type": "function"
    },
    {
      "constant": true,
      "inputs": [
        {
          "internalType": "uint256",
          "name": "",
          "type": "uint256"
        }
      ],
      "name": "tasks",
      "outputs": [
        {
          "internalType": "uint256",
          "name": "id",
          "type": "uint256"
        },
        {
          "internalType": "string",
          "name": "content",
          "type": "string"
        },
        {
          "internalType": "bool",
          "name": "completed",
          "type": "bool"
        }
      ],
      "payable": false,
      "stateMutability": "view",
      "type": "function"
    },
    {
      "constant": false,
      "inputs": [
        {
          "internalType": "string",
          "name": "_content",
          "type": "string"
        }
      ],
      "name": "createTask",
      "outputs": [],
      "payable": false,
      "stateMutability": "nonpayable",
      "type": "function"
    },
    {
      "constant": false,
      "inputs": [
        {
          "internalType": "uint256",
          "name": "_id",
          "type": "uint256"
        }
      ],
      "name": "toggleCompleted",
      "outputs": [],
      "payable": false,
      "stateMutability": "nonpayable",
      "type": "function"
    }
  ],
  "bytecode": "0x60806040526000805534801561001457600080fd5b5060408051808201909152600b81526a1a195b1b1bc81ddbdc9b1960aa1b6020820152610049906001600160e01b0361004e16565b61020d565b600080546001908101808355604080516060810182528281526020808201878152828401879052938652848152919094208451815591518051929361009b93908501929190910190610172565b5060408201518160020160006101000a81548160ff0219169083151502179055509050507f05d0fb833127fc08168556d0e7ca9554fc3f6bc843b3b7d2bf1c35aea6bab660600054826000604051808481526020018060200183151515158152602001828103825284818151815260200191508051906020019080838360005b8381101561013357818101518382015260200161011b565b50505050905090810190601f1680156101605780820380516001836020036101000a031916815260200191505b5094505050505060405180910390a150565b828054600181600116156101000203166002900490600052602060002090601f016020900481019282601f106101b357805160ff19168380011785556101e0565b828001600101855582156101e0579182015b828111156101e05782518255916020019190600101906101c5565b506101ec9291506101f0565b5090565b61020a91905b808211156101ec57600081556001016101f6565b90565b6106038061021c6000396000f3fe608060405234801561001057600080fd5b506004361061004c5760003560e01c806306661abd14610051578063111002aa1461006b578063455f5024146101135780638d97767214610130575b600080fd5b6100596101d7565b60408051918252519081900360200190f35b6101116004803603602081101561008157600080fd5b81019060208101813564010000000081111561009c57600080fd5b8201836020820111156100ae57600080fd5b803590602001918460018302840111640100000000831117156100d057600080fd5b91908080601f0160208091040260200160405190810160405280939291908181526020018383808284376000920191909152509295506101dd945050505050565b005b6101116004803603602081101561012957600080fd5b5035610301565b61014d6004803603602081101561014657600080fd5b5035610461565b604051808481526020018060200183151515158152602001828103825284818151815260200191508051906020019080838360005b8381101561019a578181015183820152602001610182565b50505050905090810190601f1680156101c75780820380516001836020036101000a031916815260200191505b5094505050505060405180910390f35b60005481565b600080546001908101808355604080516060810182528281526020808201878152828401879052938652848152919094208451815591518051929361022a93908501929190910190610510565b5060408201518160020160006101000a81548160ff0219169083151502179055509050507f05d0fb833127fc08168556d0e7ca9554fc3f6bc843b3b7d2bf1c35aea6bab660600054826000604051808481526020018060200183151515158152602001828103825284818151815260200191508051906020019080838360005b838110156102c25781810151838201526020016102aa565b50505050905090810190601f1680156102ef5780820380516001836020036101000a031916815260200191505b5094505050505060405180910390a150565b61030961058e565b60008281526001602081815260409283902083516060810185528154815281840180548651600296821615610100026000190190911695909504601f810185900485028601850190965285855290949193858401939092908301828280156103b25780601f10610387576101008083540402835291602001916103b2565b820191906000526020600020905b81548152906001019060200180831161039557829003601f168201915b50505091835250506002919091015460ff1615156020918201526040808301805115905260008581526001808452919020835181558383015180519495508594919361040393850192910190610510565b50604091820151600291909101805460ff1916911515919091179055818101518151848152901515602082015281517fe21fa966ca5cd02748c0752352d18c48165e61cb55b4c29cccf924b5a95fcff1929181900390910190a15050565b600160208181526000928352604092839020805481840180548651600296821615610100026000190190911695909504601f810185900485028601850190965285855290949193929091908301828280156104fd5780601f106104d2576101008083540402835291602001916104fd565b820191906000526020600020905b8154815290600101906020018083116104e057829003601f168201915b5050506002909301549192505060ff1683565b828054600181600116156101000203166002900490600052602060002090601f016020900481019282601f1061055157805160ff191683800117855561057e565b8280016001018555821561057e579182015b8281111561057e578251825591602001919060010190610563565b5061058a9291506105b1565b5090565b604051806060016040528060008152602001606081526020016000151581525090565b6105cb91905b8082111561058a57600081556001016105b7565b9056fea265627a7a72315820662698cae98ea95e60322580a925c7d8669dd7d7c689f1c4342a3b1a9c8bb20164736f6c63430005100032",
  "source": "pragma solidity ^0.5.0;\n\ncontract todolist {\n    uint public count = 0;\n\n    struct Task{\n        uint id;\n        string content;\n        bool completed;\n    }\n    mapping (uint => Task) public tasks;\n\n    event TaskCreated (\n        uint id,\n        string content,\n        bool completed\n    );\n\n    event TaskCompleted (\n        uint id,\n        bool completed\n    );\n\n    constructor() public {\n        createTask(\"hello world\");\n    }\n\n    function createTask(string memory _content) public {\n        count++;\n        tasks[count]= Task(count, _content, false);\n        // event for create task\n        emit TaskCreated(count, _content, false);\n    }\n\n    function toggleCompleted(uint _id) public {\n        Task memory _task= tasks[_id];\n        _task.completed = !_task.completed;\n        tasks[_id]= _task;\n        // event for completed task\n        emit TaskCompleted(_id, _task.completed);\n    }\n}",
  "sourcePath": "/home/harvey/harvey_project/eth_todolist/contracts/todolist.sol",
  "compiler": {
    "name": "solc",
    "version": "0.5.16+commit.9c3226ce.Emscripten.clang"
  },
  "schemaVersion": "3.4.16",
  "updatedAt": "2025-05-17T09:56:43.931Z",
  "networkType": "ethereum",
  "devdoc": {
    "methods": {}
  },
  "userdoc": {
    "methods": {}
  }
}